:1000000015EF00F0EA6A070EE96EEF500DE0060EFC
:10001000016E006A002EFED7012EFBD77B0E006E0C
:10002000002EFED7EF2EF3D7000CF86AD09EEA6AB6
:10003000E96AC150C00B0F09C16E070EB46E1F0EE6
:10004000936EFF0E966E93908A809680059084B092
:10005000058005B02DD093948A9493928A929390C0
:100060008A80140E066EFA0E076ECCDF062EFBD7C2
:1000700093908A9093948A9493928A82080E066E43
:10008000FA0E076EBFDF062EFBD793928A929394E7
:100090008A9493948A84100E066EFA0E076EB2DF6D
:1000A000062EFBD793928A9293948A9493948A947F
:0400B000CAD70300A8
:020000040030CA
:0E00000000CE390E0087A1000FC00FE00F40A8
:00000001FF
;PIC18F4550
;CRC=8C59  CREATED="24-mai-17 18:22"
