:100000006CEF01F054656D706F3A0A00EA6A120EE7
:10001000E96EEF50D8B41AEF00F0060E016E006AD8
:10002000002EFED7012EFBD77B0E006E002EFED7D2
:10003000EF2EF3D712001938F00B006E0F0E8C1450
:1000400000108C6E00008C80030E006E002EFED718
:100050008C9012008350006E00380F0B016E12005E
:100060000F0E9514F009956E8C8400008C800000B2
:10007000F1DF01C019F08C9000008C8000D000D01E
:100080000000E8DF01C018F08C900F0E9514956EFB
:100090001938006EF00E001600501810016E56EF61
:1000A00000F09590959295948C92DAD701C018F053
:1000B00001BEFBD78C9216B08C8200008C9400009D
:1000C0008C901738186E0F0E181618C019F0B3DF81
:1000D00017500F0B186E196EAEDF1200280E096E46
:1000E0000C0E0A6E010E0B6E060E0C6E8C908C922E
:1000F0008C940F0E9514956E9590959295940F0E85
:10010000126E84DF010E086E0850030808E3030E28
:10011000196E91DF050E126E79DF082AF5D7020EEF
:10012000196E89DF050E126E71DF086A0850030828
:100130000DE3036A0850090FE96E000E0320EA6E12
:10014000EFCF17F0166AADDF082AF0D777EF01F08E
:10015000132C01D003D0400E146E01D0146A010E8E
:10016000125C142614508009156E166A176E99DFFA
:1001700012001150070A07E00B0A0AE0060A10E015
:10018000020A14E018D0010E126E136EE1DF18D0CF
:10019000166A010E176E85DF020E126E37DF10D061
:1001A000010E126E020E136ED3DF0AD0166A100E05
:1001B000176E77DF05D0010E166E11C017F071DFD4
:1001C00012000900F5520CE0F6CF08F0F7CF09F065
:1001D000F5CF11F0CEDF08C0F6FF09C0F7FFF1D769
:1001E00097EF01F0EACF10F0E9CF0FF009AE08D099
:1001F0000F8E0FA80F2A081E091E082AD8B4092A34
:100200000938F0090B6E0B26E20F0C6E320F0E6EE2
:1002100009500F0B0C260C260E26E90F0D6E0D262D
:100220000D2608380F0B0D260E260D360E360E1E27
:100230000E3608500F0B0E260B36070E0A6E0A0EEE
:100240000D060E26FDE30C060D26FDE30B060C261F
:10025000FDE30A060B26FDE3EA6A0A0EE96E070EC5
:100260000F140F9CED520F1407E10FB8EE520FB8A8
:1002700003D0200E006E20D0E926000EEA22E950BD
:100280000E0803E1EA5201E10F8CEF50006E08E125
:100290000FBC06D00FB81BD00FB602D0200E0BD06B
:1002A0000FAE06D02D0E006EED500F9C0F9E04D0A9
:1002B0000F860F98300E0026EACF09F0E9CF08F03C
:1002C00000C011F056DF09C0EAFF08C0E9FFEE5098
:1002D0000FACD5D7A3EF01F0F86AD09E056A046A87
:1002E000C150C00B0F09C16E070EB46EF7D6270EB2
:1002F000076E0F0E066E06500F0806E1075027081E
:1003000003E1036A000E07D0010E0624016E000E01
:100310000720036E0150066E03C007F0010E126E37
:10032000136E16DF040EF66E000EF76E4AD7080E37
:10033000126E020E136E0CDF100EE96E07C009F08C
:1003400006C008F04FD70A0E086EF00E126E5EDE81
:08035000082EFBD7D0D70300F3
:020000040030CA
:0E00000004CC3E1E0087A1000FC00FE00F4091
:00000001FF
;PIC18F4550
;CRC=21FE  CREATED="31-mai-17 08:16"
