:04000000D5EF04F044
:08000800046ED8CF05F0E0CF33
:1000100006F00001E9CF0CF0EACF07F0E1CF08F0DD
:10002000E2CF09F0D9CF0AF0DACF0BF0F3CF12F01C
:10003000F4CF13F0FACF14F0F5CF15F0F6CF16F099
:10004000F7CF17F000C00EF001C00FF002C010F0A3
:1000500003C011F09DA230EF00F09EB2F4EF00F06B
:100060000EC000F00FC001F010C002F011C003F08C
:100070000CC0E9FF07C0EAFF078E08C0E1FF09C016
:10008000E2FF0AC0D9FF0BC0DAFF12C0F3FF13C0B2
:10009000F4FF14C0FAFF15C0F5FF16C0F6FF17C035
:1000A000F7FF045006C0E0FF05C0D8FF10004D6AFE
:1000B0004E6A010E4F6EDA6AD96A526A450E516E67
:1000C000EA6A490EE96E52C0E2FF51C0E1FF4FC03B
:1000D00050F0D890E550EE02F3504D22F4504E22ED
:1000E000502EF7D74DC0DEFF4EC04DF04E6AD8B04F
:1000F0004E2A512AD8B4522A4F2A4F500508E0E11F
:100100001EEF01F0D8B203D0EA6A510EE96E4C50EE
:100110005018800B566E4CAE0BD0491E4A1E4B1E1B
:100120004C1E492AD8B44A2AD8B44B2AD8B44C2AEF
:1001300050AE0BD04D1E4E1E4F1E501E4D2AD8B431
:100140004E2AD8B44F2AD8B4502A006A016A026AEB
:10015000036A516A526A536A546A50504F104E10E3
:100160004D102CE0200E556ED89049364A364B364D
:100170004C3651365236533654365050545C08E1A2
:100180004F50535C05E14E50525C02E14D50515CC2
:100190000FE34D50515E4E50D8A04E3C525E4F5032
:1001A000D8A04F3C535E5050D8A0503C545ED880ED
:1001B0000036013602360336552ED6D756AE0BD052
:1001C000001E011E021E031E002AD8B4012AD8B444
:1001D000022AD8B4032A51C0EFFF52C0ECFF53C02B
:1001E000ECFF54C0ECFF1200222C02D0000E02D013
:1001F000010E2224226EC282C2B2FED7026A036AB4
:1002000003C01DF002C01CF0C4CF1BF0C3CF1AF016
:10021000000E1A5E020E1B5A000E1C5A1D5A1DC0FB
:1002200048F01CC047F01BC046F01AC045F04C6AAD
:100230004B6A4E0E4A6E200E496E39D703C048F005
:1002400002C047F001C046F000C045F0D89203C09C
:100250004CF002C04BF001C04AF000C049F0506AB7
:100260004F6A030E4E6E4D684DDF03C021F002C091
:1002700020F001C01FF000C01EF09E9230EF00F091
:100280004350080803E193908A8002D093928A82B7
:1002900093988A98956A44C08CFF939A8A8A030E31
:1002A000006E002EFED7939A8A9A93908A9093922A
:1002B0008A921200286A2850070834E393948A949B
:1002C000080E436E400E446EDBDF090E436E400E97
:1002D000446ED6DF2850B8092A6E080E436E2AC035
:1002E00044F0CEDF2850B8092A6E090E436E2AC0AA
:1002F00044F0C6DF93948A84296A29503F0810E3AA
:100300002750FF0DF3CF44F0080E436EB9DF27509E
:10031000FF0DF3CF44F0090E436EB2DF292AEDD76B
:10032000282AC9D7120094908B80939A8A9A939026
:100330008A9093928A9293948A94080E436EC00E88
:10034000446E9EDF090E436EC00E446E99DF080EA8
:10035000436E400E446E94DF090E436E400E446EB1
:100360008FDF080E436EB80E446E8ADF090E436EAF
:10037000B80E446E85DF242C0BD0080E436E3F0E62
:10038000446E7EDF090E436E3F0E446E79DF0AD065
:10039000080E436E3E0E446E73DF090E436E3E0E32
:1003A000446E6EDF276A86DF00EF05F0006A016A9F
:1003B0003E50D8903FB00026003201323FB20026B6
:1003C000003201323FB40026003201323FB600262F
:1003D000003201323FB80026003201323FBA002617
:1003E000003201323FBC0026003201323FBE0026FF
:1003F0000032013212004250080803E193908A80D3
:1004000002D093928A82956893988A88939A8A8A6E
:10041000030E006E002EFED7939A8A9A030E006E8A
:10042000002EFED7939A8A8A030E006E002EFED706
:10043000956883CF43F0939A8A9A93908A90939287
:100440008A9243C001F04AEF02F0080E416E3D501F
:100450003F0804E2400E3D5E090E416E93948A947B
:100460003D9E3D8C41C043F03DC044F009DF3E302D
:10047000006E003200321F0E00160050BF0BB8098C
:10048000426E41C043F0446EFBDE93948A8441C0C7
:1004900042F0B1D701C040F03F2C0FD03E50070BC7
:1004A000426E010E006E4250016E04E0D89000369C
:1004B000012EFCD7005040120FD03E50070B426E69
:1004C000010E006E4250016E04E0D8900036012EFD
:1004D000FCD70050FF0A401693948A9441C043F021
:1004E0003DC044F0CDDE93948A8441C043F040C0C7
:1004F00044F0C6DE12002F50315C3D6E3D503DAEE3
:1005000003D0000ED8803D54386E3050325C3D6EC2
:100510003D503DAE03D0000ED8803D54396E2FC003
:1005200034F030C035F02F50315C02E2366802D032
:10053000010E366E3050325C02E2376802D0010E96
:10054000376E3950800A006E3850800A005C01E036
:1005500046E2020E3E6E39C03FF028DF3850015CA3
:10056000036AE8BE03063A6E03C03BF03C6A38BE3D
:1005700035D03C50385C32E334C03DF035C03EF0FD
:1005800033C03FF062DF3BAE0FD0020E3E6E39C08B
:100590003FF00CDF0150036AE8BE03063A26035021
:1005A0003B223650342618D0020E3E6E39C03FF042
:1005B000FDDE01C03DF0020E3E6E38C03FF0F6DEBB
:1005C00001503D5C036AE8BE03063A2603503B2215
:1005D00036503426375035263C2AC9D745D0020E2E
:1005E0003E6E38C03FF0E2DE3950015C036AE8BE7F
:1005F00003063A6E03C03BF03C6A39BE35D03C502E
:10060000395C32E334C03DF035C03EF033C03FF0DA
:100610001CDF3BAE0FD0020E3E6E38C03FF0C6DE90
:100620000150036AE8BE03063A2603503B223750C6
:10063000352618D0020E3E6E38C03FF0B7DE01C03E
:100640003DF0020E3E6E39C03FF0B0DE01503D5C21
:10065000036AE8BE03063A2603503B22365034268E
:10066000375035263C2AC9D712002B521DE02A509C
:10067000285C05E228C02DF02AC02EF004D02AC044
:100680002DF028C02EF02D502E5C0DE327C02FF04A
:100690002DC030F029C031F02DC032F02CC033F025
:1006A0002ADF2D2AF0D72CD027C02FF028C030F019
:1006B00029C031F028C032F02CC033F01CDF27C035
:1006C0002FF02AC030F029C031F02AC032F02CC0FF
:1006D00033F011DF27C02FF028C030F027C031F0F1
:1006E0002AC032F02CC033F006DF29C02FF028C01A
:1006F00030F029C031F02AC032F02CC033F0FBDEDC
:100700008FEF03F0276AD6DD276A286A660E296E06
:100710003E0E2A6E24C02BF024C02CF0A6D724C095
:1007200027F0271E330E2F6E306A316E3E0E326E6A
:1007300027C033F0E0DE330E266E2650660817E33E
:1007400024C027F0271E26C03DF01E0E3E6E27C097
:100750003FF07BDE24C027F0271E26C03DF0200E90
:100760003E6E27C03FF071DE25502626E6D7330EB9
:10077000266E2650660817E324C027F0271E26C0E1
:100780003DF01E0E3E6E27C03FF05FDE24C027F016
:10079000271E26C03DF0200E3E6E27C03FF055DEDE
:1007A0002550265EE6D71F0E266E26503E0818E31B
:1007B00024C027F0271E320E3D6E26C03EF027C013
:1007C0003FF043DE24C027F0271E340E3D6E26C0C6
:1007D0003EF027C03FF039DE020E25242626E5D75D
:1007E0001F0E266E26503E0818E324C027F0271E51
:1007F000320E3D6E26C03EF027C03FF026DE24C0FC
:1008000027F0271E340E3D6E26C03EF027C03FF075
:100810001CDE020E2524265EE5D724C027F0271E05
:100820002F6A1F0E306E660E316E1F0E326E27C09D
:1008300033F061DE120027AE59D0D882EA6A290E61
:10084000E96E196AF2BE198EF29E27C04CF026C0DE
:100850004BF025C04AF024C049F0506A4F6A270E79
:100860004E6E100E4D6E4EDC19BEF28E2CC030F066
:100870002BC02FF02AC02EF029C02DF0EACF32F085
:10088000E9CF31F0D892196AF2BE198EF29E2CC0CF
:100890004CF02BC04BF02AC04AF029C049F0506AF6
:1008A0004F6A030E4E6EE80E4D6E2CDC19BEF28EB2
:1008B00032C0EAFF31C0E9FF03C027F002C026F0D2
:1008C00001C025F000C024F01F0E2424296E000E64
:1008D00025202A6E000E26202B6E000E27202C6E5F
:1008E00028C03DF029C03EF03F6AAFDD27BE5CD096
:1008F000D882EA6A290EE96E196AF2BE198EF29E52
:1009000027C04CF026C04BF025C04AF024C049F067
:10091000506A4F6A270E4E6E100E4D6E82EC00F03C
:1009200019BEF28E2CC030F02BC02FF02AC02EF052
:1009300029C02DF0EACF32F0E9CF31F0D892196A10
:10094000F2BE198EF29E2CC04CF02BC04BF02AC088
:100950004AF029C049F0506A4F6A030E4E6EE80E05
:100960004D6E82EC00F019BEF28E32C0EAFF31C04B
:10097000E9FF03C027F002C026F001C025F000C047
:1009800024F01F0ED8802454296E000E25542A6EA0
:10099000000E26542B6E000E27542C6E28C03DF0FE
:1009A00029C03EF03F6A51DD1200F86AD09E078EE2
:1009B000226A660E236EC150C00B0F09C16E070E6E
:1009C000B46EFF0E926E480E0609CA6E4B0ECB6EC9
:1009D000C150C00B3E09C16E000E016EC250C30B68
:1009E0000110C26E100E006E002EFED70000C05027
:1009F000C00B0709C06EC08EC280010E246E93D456
:100A0000010E246E050E256E7DDE9D82C00EF21253
:100A1000225224E12350660811E121C027F020C0B2
:100A200026F01FC025F01EC024F023C028F003DFED
:100A3000010E246E050E256E65DE236A23506608BE
:100A40000DE021C027F020C026F01FC025F01EC0F9
:100A500024F023C028F0EFDE010E2326D9D70300AF
:020000040030CA
:0E00000004CC3E1E0087A1000FC00FE00F4091
:00000001FF
;PIC18F4550
;CRC=4DCA  CREATED="20-jun-17 09:53"
