:04000000EEEF03F02C
:08000800046ED8CF05F0E0CF33
:1000100006F00001E9CF0CF0EACF07F0E1CF08F0DD
:10002000E2CF09F0D9CF0AF0DACF0BF0F3CF12F01C
:10003000F4CF13F0FACF14F0F5CF15F0F6CF16F099
:10004000F7CF17F000C00EF001C00FF002C010F0A3
:1000500003C011F09DA230EF00F09EB255EF01F009
:100060000EC000F00FC001F010C002F011C003F08C
:100070000CC0E9FF07C0EAFF078E08C0E1FF09C016
:10008000E2FF0AC0D9FF0BC0DAFF12C0F3FF13C0B2
:10009000F4FF14C0FAFF15C0F5FF16C0F6FF17C035
:1000A000F7FF045006C0E0FF05C0D8FF1000F76A54
:1000B000BE0FF66E000EF7220900F5501200000088
:1000C00000000000005F00000003000300143E1465
:1000D0003E14242A7F2A124333086661364955228A
:1000E000500005030000001C2241000041221C00BA
:1000F00014083E081408083E0808005030000008A4
:1001000008080808006060000020100804023E5142
:1001100049453E04027F000042615149462241495F
:1001200049361814127F1027454545393E4949493B
:100130003201017109073649494936264949493E84
:100140000036360000005636000008142241001424
:1001500014141414004122140802015109063E41EE
:1001600059555E7E0909097E7F494949363E41411C
:1001700041227F4141413E7F494949417F09090967
:10018000013E4141493A7F0808087F00417F410014
:10019000304040403F7F081422417F404040407F34
:1001A000020C027F7F0204087F3E4141413E7F09ED
:1001B0000909061E2121215E7F0909097600F76AD7
:1001C000CE0FF66E010EF7220900F55012002649F7
:1001D00049493201017F01013F4040403F1F20401B
:1001E000201F7F2010207F41221C22410708700819
:1001F000076151494543007F410000020408102077
:100200000000417F000402010204404040404000E1
:100210000102040020545454787F44444438384444
:10022000444444384444447F385454541804047EAD
:100230000505085454543C7F0804047800447D406C
:10024000002040443D007F1028440000417F4000D2
:100250007C047804787C0804047838444444387C6E
:1002600014141408081414147C007C080404485462
:1002700054542004043F44443C4040207C1C204013
:10028000201C3C4030403C44281028440C50505026
:100290003C4464544C44000836414100007F000057
:1002A00041413608000201020402010E1D26000E23
:1002B0001E22D6501B6ED7CF1CF0D76AD66A9E92EC
:1002C00030EF00F04B50080803E193908A8002D091
:1002D00093928A8293988A98956A4CC08CFF939ADD
:1002E0008A8A030E006E002EFED7939A8A9A939004
:1002F0008A9093928A921200356A3550070834E347
:1003000093948A94080E4B6E400E4C6EDBDF090E00
:100310004B6E400E4C6ED6DF3550B809376E080E66
:100320004B6E37C04CF0CEDF3550B809376E090E32
:100330004B6E37C04CF0C6DF93948A84366A3650D1
:100340003F0810E33450FF0DF3CF4CF0080E4B6E16
:10035000B9DF3450FF0DF3CF4CF0090E4B6EB2DF16
:10036000362AEDD7352AC9D7F7EF01F094908B8064
:10037000939A8A9A93908A9093928A9293948A9469
:10038000080E4B6EC00E4C6E9DDF090E4B6EC00EFC
:100390004C6E98DF080E4B6E400E4C6E93DF090ECC
:1003A0004B6E400E4C6E8EDF080E4B6EB80E4C6ED0
:1003B00089DF090E4B6EB80E4C6E84DF332C0BD0E8
:1003C000080E4B6E3F0E4C6E7DDF090E4B6E3F0EDE
:1003D0004C6E78DF0AD0080E4B6E3E0E4C6E72DF0C
:1003E000090E4B6E3E0E4C6E6DDF346A85D705EFFD
:1003F00004F08E0E006E34C001F033C002F0036AC8
:10040000015209E102C001F0026A080E005E0152C9
:1004100002E1006A08D0D89001BE04D0023601364D
:100420000006F9D7019E16EF04F03750D8B4A5D0D6
:10043000436E3B50D8B4A1D0435E05E37F0E432604
:10044000D8B09BD006D0810E435ED8A096D0D8B449
:1004500094D043C000F0016A026A036A426A38C05D
:1004600041F0418E39C040F03AC03FF0190E436E62
:100470003E503F5E0DE2010E405E0AE2415E08E240
:10048000425E06E2422A412A402A3E503F2628D0B8
:100490003D50405E12E2010E415E0FE2425E0DE20F
:1004A000422A412A3D5040263E503F2619E3402A29
:1004B00017E1412A15E1422A13D03C508009415EE0
:1004C0000EE2010E425E0BE2422A3C5080094126B8
:1004D0003D504026E9E3412AE7E1422AE5D703807F
:1004E000432E01D00BD0D8903F36403641364236AD
:1004F000D8900336023601364436BAD744A006D027
:10050000D890013202320332443202D0000635E084
:1005100044BE1ED0D8903F364036413642363E501B
:100520003F5E07E2010E405E04E2415E02E2425E8F
:100530001AE33D50405E05E2010E415E02E2425E7A
:1005400012E33C508009415E03E2010E425E0BE380
:10055000032A09E1022A07E1012A05E1002A0DE048
:1005600001320232033238C043F03C50431A43AEEA
:1005700002D0018E06D0019E04D0006A016A026A90
:10058000036A2CEF04F04A50080803E193908A8034
:1005900002D093928A82956893988A88939A8A8ADD
:1005A000030E006E002EFED7939A8A9A030E006EF9
:1005B000002EFED7939A8A8A030E006E002EFED775
:1005C000956883CF4BF0939A8A9A93908A909392EE
:1005D0008A924BC001F012EF03F0080E496E4550AD
:1005E0003F0804E2400E455E090E496E93948A94DA
:1005F000459E458C49C04BF045C04CF063DE46300B
:10060000006E003200321F0E00160050BF0BB809FA
:100610004A6E49C04BF04C6E55DE93948A8449C0B3
:100620004AF0B1D701C048F0472C0FD04650070B15
:100630004A6E010E006E4A50016E04E0D8900036FA
:10064000012EFCD7005048120FD04650070B4A6EBF
:10065000010E006E4A50016E04E0D8900036012E63
:10066000FCD70050FF0A481693948A9449C04BF077
:1006700045C04CF027DE93948A8449C04BF048C0B3
:100680004CF020DEE0EF03F0396A39503524E96E92
:10069000000E3620EA6EEF52D8B49FD03950352480
:1006A000E96E000E3620EA6EEF5052081EE3395014
:1006B0003524E96E000E3620EA6E200EEF5C050D43
:1006C000F350036A436EEA6A3E0EE96E476A43C01E
:1006D00046F0050E016EF76A4350E9DC0A00090096
:1006E000F5CFEEFF012EFBD72CD039503524E96E23
:1006F000000E3620EA6EEF507E081EE33950352496
:10070000E96E000E3620EA6E530EEF5C050DF350D5
:10071000036A436EEA6A3E0EE96E476A43C046F0DA
:10072000050E016EF76A43504ADD0A000900F5CF55
:10073000EEFF012EFBD705D03E6A3F6A406A416A50
:10074000426A3750050DF35033247F0806E2336ABE
:100750003750070DF350010F34263A6A3A50040817
:1007600039E33B6A3750070DF3503B5C2FE2036AD5
:100770003A503E0FE96E000E0320EA6EEFCF00F014
:100780003B50016E04E0D8900032012EFCD700A04F
:100790001BD03C6A37503C5C17E23D6A37503D5CE9
:1007A00011E23D503324436E3B503702F350342462
:1007B0003C24446E43C045F0466E38C047F00DD728
:1007C0003D2AECD73C2AE6D73B2ACCD73A2A3750E9
:1007D0003326C4D7392A332A58D71200F86AD09E54
:1007E000078E1E6A1D6AC150C00B0F09C16E070E2D
:1007F000B46E196A1A6AA80ED56E700E0609CA6E12
:10080000C80ECB6E010E336EB1D59D82C00EF212B2
:100810001D503F0862E11E5260E11B5202E11C5272
:100820002FE01CC034F01BC033F0E3D503C036F01A
:1008300002C035F001C034F000C033F003C03AF01C
:1008400002C039F001C038F000C037F03E6A3D6A9E
:100850003C6A810E3B6EE9D503C022F002C021F054
:1008600001C020F000C01FF0020E336E346E366AF5
:100870001F0E356E010E376E386E06DF1E6A1D6A5A
:100880001B522BE11C5229E1460E236E6F0E246E83
:10089000720E256E610E266E200E276E640E286E77
:1008A000650E296E200E2A6E650E2B6E730E2C6E51
:1008B000630E2D6E610E2E6E6C0E2F6E610E306EFD
:1008C000210E316E326A020E336E346E366A230E9A
:0E08D000356E010E376E386ED7DE9AD70300F4
:020000040030CA
:0E00000004CC3E1E0087A1000FC00FE00F4091
:00000001FF
;PIC18F4550
;CRC=0D54  CREATED="13-jun-17 21:19"
