:020000040000FA
:10000000E8EF01F0F76A140FF66E000EF722090010
:10001000F5501200280C0106F76A280FF66E000E44
:10002000F7220900F55012006F6C61206D756E6447
:100030006F0A0000EA6A0D0EE96EEF500EE00F0E37
:10004000016E006A002EFED7012EFBD78F0E006EC8
:10005000002EFED70000EF2EF2D7000C1438F00B64
:10006000006E0F0E83140010836E00008380070E55
:10007000006E002EFED700D08390000CF00E956E1F
:10008000838400008380000083380F0B146E8390FC
:1000900000008380030E006E002EFED700D0833850
:1000A0000F0B136E8390000E956E1438006EF00ED9
:1000B000001600501310016E60EF00F08392DED73F
:1000C00001C013F001BEFBD711A0839211B083824F
:1000D00000008394000083901238136E0F0E1316E5
:1000E00013C014F0BBDF12500F0B136E146EB6DF8B
:1000F000000C000E956E8392839483900F0E0D6E0C
:1001000099DF010E0B6E0B50030808E3030E146E0B
:10011000A5DF050E0D6E8EDF0B2AF5D7020E146ECD
:100120009DDF0B6A0B5003080EE3036A0B50F2CFFE
:100130000CF0F29E67DF0CBEF28E0D6E116A126E2D
:10014000BDDF0B2AEFD7A6EF00F0D3D7F00E936EEA
:10015000F18EFBEF01F00E2C01D003D0400E0F6E9C
:1001600001D00F6A010E0D5C0F260F508009106E32
:10017000116A126EA3DFDDEF00F00C500C0A05E0EF
:10018000060A0BE0020A0EE012D0116A010E126E8E
:1001900095DF020E0D6E4EDF10D0010E0D6E020EB9
:1001A0000E6ED9D7116A100E126E88DF06D0010EBE
:1001B000116E0CC012F082DF00D0000C010E0E6E2A
:1001C0000D50016E04E0D8900E36012EFCD7936AD4
:1001D0000EC08AFF35EF01F00F50070B006E0F3095
:1001E000016E013201321F0E011601501124E96E19
:1001F000000E1220EA6E016A012A002A01D001369F
:10020000002EFDD7105203E00150EF1203D0011E63
:100210000150EF164EEF01F00F50070B006E0F303C
:10022000016E013201321F0E011601501024E96ED9
:10023000000E1120EA6EEFCF01F0002A01D001324A
:10024000002EFDD755EF01F00D50040DF3500E2494
:100250000F6E0FC001F05EEF01F006940B6A0B50B9
:10026000030845E30BC00DF0A9D7270E006E002E42
:10027000FED700D00C6A0C50030837E30C0E0C2498
:100280000D6E7C0E0E6ED8B00E2A0DC00FF0010E52
:10029000106E0F0E126E920E116E9ED70DC00FF0E3
:1002A0000F0E116E800E106EB7D701A01CD008C0C3
:1002B00009F00BC00DF00CC00EF0C6D701C008F05D
:1002C00006840A5009080BE206A409D00950085C0C
:1002D00006E106B004D00680069208C005F0095079
:1002E000085C01E00A6A0C2AC6D70B2AB8D706B404
:1002F00002D00A6A06900950085C05E10A50090814
:1003000002E3010E0A2606EF02F006A056D006B25E
:1003100054D005501FE0010A20E0030A21E0010A41
:1003200022E0070A23E0010A24E0030A25E0010A8B
:1003300026E00F0A27E0010A28E0030A29E0010A63
:100340002AE0070A2BE0010A2CE0030A2DE0010A4B
:100350002EE030D0370E076E30D0380E076E2DD01D
:10036000390E076E2AD02F0E076E27D0340E076E77
:1003700024D0350E076E21D0360E076E1ED0580ED3
:10038000076E1BD0310E076E18D0320E076E15D0D7
:10039000330E076E12D02D0E076E0FD0430E076E70
:1003A0000CD0300E076E09D03D0E076E06D02B0E16
:1003B000076E03D0210E076E00D007EF02F006B2E1
:1003C00005D0068207C00CF0D8DE076A08EF02F0FD
:1003D000F86AD09EEA6AE96AC150C00B0F09C16E83
:1003E000070EB46E056A0690076A06820694086ACC
:1003F000096A0A6AAAD60B6A0B500EDE0B2A006E37
:100400000C6EBBDE0A0E0B5CF7E127D77ED7D7D781
:04041000FCD7030012
:020000040030CA
:0E00000000051E1E008381000FC00FE00F40A0
:00000001FF
;PIC18F4550
