:100000001DEF01F0016A026A006A036A1550D8A464
:100010000EEF00F01450D8B42BEF00F0100E166E57
:10002000D89012361336003603361550035CD8A428
:100030001CEF00F01450005CD8A026EF00F0145024
:10004000005ED8A003061550035ED8800136023644
:10005000162E10EF00F012001050000A13E0010AF3
:1000600014E0030A15E0010A16E0070A17E0010A86
:1000700018E0030A19E0010A1AE00F0A1BE0010A5E
:100080001CE01ED03F0E116E1DD0060E116E1AD050
:100090005B0E116E17D04F0E116E14D0660E116EDE
:1000A00011D06D0E116E0ED07D0E116E0BD0070E9D
:1000B000116E08D07F0E116E05D06F0E116E02D03A
:1000C000400E116E11C001F0E9EF00F009C013F00D
:1000D00008C012F0156A0A0E146E94DF00C00AF010
:1000E00009C013F008C012F0156A640E146E8ADF9E
:1000F00000C010F003C011F003C013F000C012F0F4
:10010000156A0A0E146E7EDF01C00BF009C013F0F1
:1001100008C012F0030E156EE80E146E73DF00C0F7
:1001200010F003C011F003C013F000C012F0156A04
:10013000640E146E67DF01C00CF009C013F008C034
:1001400012F0270E156E100E146E5CDF00C010F05A
:1001500003C011F003C013F000C012F0030E156EBF
:10016000E80E146E4FDF01C00DF00450FC0F2EE2BC
:10017000040FF8EF00F096948D9496928D929690DD
:100180008D90929689860AC00EF020D0929689961C
:1001900096928D9296908D9096948D840BC00EF0D1
:1001A00015D096948D949296899696908D9096926D
:1001B0008D820CC00EF00AD096948D9496928D92FA
:1001C0009296899696908D800DC00EF00EC010F01C
:1001D00043D701C00FF0956A0FC08CFF045003088D
:1001E00002E1000E02D0010E0424046E2EEF01F095
:1001F000E824F76AF7360B0FF66E020EF7220A00B4
:10020000F550FA6E0800F550F96E76018C01A201E6
:10021000B801EA6A080EE96EEF500DE0060E016EB5
:10022000006A002EFED7012EFBD77B0E006E002E3B
:10023000FED7EF2EF3D731EF01F0F86AD09E046AB3
:10024000C150C00B0F09C16E070EB46E066A056A75
:10025000076A06C009F005C008F038D70A0E086E14
:10026000D8D70750630802E1000E02D0010E072420
:10027000076E075208E1010E0524016E000E0620EC
:10028000036E015003D006C003F00550056E03C095
:1002900006F005500F0806E10650270803E1036A3F
:1002A000000E03D006C003F00550056E03C006F033
:0402B000D0D70300A0
:020000040030CA
:0E00000004CC380E0087A1000FC00FE00F40A7
:00000001FF
;PIC18F4550
;CRC=C92B  CREATED="30-mai-17 20:13"
