:1000000050EF01F064656C7461543D20254C7520FF
:1000100075730000EA6A160EE96EEF500DE0060EE9
:10002000016E006A002EFED7012EFBD77B0E006EFC
:10003000002EFED7EF2EF3D712001D38F00B006E06
:100040000F0E8C1400108C6E00008C80030E006E5E
:10005000002EFED78C9012008350006E00380F0BDC
:10006000016E12000F0E9514F009956E8C8400003D
:100070008C800000F1DF01C01DF08C9000008C80AE
:1000800000D000D00000E8DF01C01CF08C900F0E03
:100090009514956E1D38006EF00E001600501C1061
:1000A000016E58EF00F09590959295948C92DAD766
:1000B00001C01CF001BEFBD78C921AB08C820000EC
:1000C0008C9400008C901B381C6E0F0E1C161CC0EC
:1000D0001DF0B3DF1B500F0B1C6E1D6EAEDF120048
:1000E000280E0B6E0C0E0C6E010E0D6E060E0E6EB3
:1000F0008C908C928C940F0E9514956E9590959291
:1001000095940F0E166E86DF010E0A6E0A500308D4
:1001100008E3030E1D6E91DF050E166E7BDF0A2AC3
:10012000F5D7020E1D6E89DF050E166E73DF0A6AA3
:100130000A5003080DE3036A0A500B0FE96E000E24
:100140000320EA6EEFCF1BF01A6AADDF0A2AF0D760
:100150005FEF01F0172C01D003D0400E186E01D0D4
:10016000186A010E165C182618508009196E1A6A52
:100170001B6E99DF12001550070A07E00B0A0AE010
:10018000060A10E0020A14E018D0010E166E176E6F
:10019000E1DF18D01A6A010E1B6E85DF020E166EA3
:1001A00039DF10D0010E166E020E176ED3DF0AD0A3
:1001B0001A6A100E1B6E77DF05D0010E1A6E15C07D
:1001C0001BF071DF12000900F6CF0DF0F7CF0EF033
:1001D000F5CF15F0D0DF0DC0F6FF0EC0F7FF0C2EE7
:1001E000F2D71200EACF14F0E9CF13F00D38F0097E
:1001F0000F6E0F26E20F106E320F126E0D500F0BA6
:10020000102610261226E90F116E112611260C3821
:100210000F0B1126122611361236121E12360C50F2
:100220000F0B12260F36070E0E6E0A0E110612263F
:10023000FDE310061126FDE30F061026FDE30E0672
:100240000F26FDE3EA6A0E0EE96E070E1314139CE7
:10025000E926000EEA22E950120803E1EA5201E120
:10026000138CEF50006E08E113BC06D013B813D006
:1002700013B602D0200E03D013861398300E00263A
:10028000EACF0DF0E9CF0CF000C015F074DF0DC01F
:10029000EAFF0CC0E9FFEE5013ACDDD78FEF01F0A1
:1002A000F86AD09EC150C00B0F09C16E070EB46E24
:1002B000850ED56ED650046ED7CF05F011D7096ADA
:1002C000086A0950270805E303E108500F08D8B071
:1002D000F8D7D650066ED7CF07F00450065C0A6EEA
:1002E000055007580B6E0A360B360A360B360A369F
:1002F0000B360A360B360A360B360A360B36C00E6C
:100300000A16040EF66E000EF76E080E0C6E5BDF1A
:10031000100EE96E0BC00DF00AC00CF063D70F0E83
:10032000F66E000EF76E030E0C6E4DDFFFD7030066
:020000040030CA
:0E00000004CC3E1E0087A1000FC00FE00F4091
:00000001FF
;PIC18F4550
;CRC=EBE7  CREATED="30-mai-17 00:19"
