:04000000B1EF01F06B
:08000800046ED8CF05F0E0CF33
:1000100006F00001E9CF0CF0EACF07F0E1CF08F0DD
:10002000E2CF09F0D9CF0AF0DACF0BF0F3CF12F01C
:10003000F4CF13F0FACF14F0F5CF15F0F6CF16F099
:10004000F7CF17F000C00EF001C00FF002C010F0A3
:1000500003C011F0F2AA30EF00F0F2B457EF00F055
:100060000EC000F00FC001F010C002F011C003F08C
:100070000CC0E9FF07C0EAFF078E08C0E1FF09C016
:10008000E2FF0AC0D9FF0BC0DAFF12C0F3FF13C0B2
:10009000F4FF14C0FAFF15C0F5FF16C0F6FF17C035
:1000A000F7FF045006C0E0FF05C0D8FF100019504C
:1000B000B80802E1000E02D0010E1924196E19527F
:1000C00008E11A503B0802E1000E02D0010E1A248A
:1000D00001D01A501A6E19520AE11A5208E11B5047
:1000E0003B0802E1000E02D0010E1B2401D01B5080
:1000F0001B6EF29430EF00F054656D706F3A0A0099
:10010000EA6A240EE96EEF500DE0060E016E006AF9
:10011000002EFED7012EFBD77B0E006E002EFED7E1
:10012000EF2EF3D712002938F00B006E0F0E8C144F
:1001300000108C6E00008C80030E006E002EFED727
:100140008C9012008350006E00380F0B016E12006D
:100150000F0E9514F009956E8C8400008C800000C1
:10016000F1DF01C029F08C9000008C8000D000D01D
:100170000000E8DF01C028F08C900F0E9514956EFA
:100180002938006EF00E001600502810016ECEEFD8
:1001900000F09590959295948C92DAD701C028F052
:1001A00001BEFBD78C9226B08C8200008C9400009C
:1001B0008C902738286E0F0E281628C029F0B3DF40
:1001C00027500F0B286E296EAEDF1200280E206E0E
:1001D0000C0E216E010E226E060E236E8C908C92F8
:1001E0008C940F0E9514956E9590959295940F0E94
:1001F000246E86DF010E1F6E1F50030808E3030EF6
:10020000296E91DF050E246E7BDF1F2AF5D7020EC3
:10021000296E89DF050E246E73DF1F6A1F500308E5
:100220000DE3036A1F50200FE96E000E0320EA6EF3
:10023000EFCF27F0266AADDF1F2AF0D7C7EF01F016
:10024000232C01D003D0400E246E01D0246A010E6D
:10025000225C242624508009256E266A276E99DFA9
:1002600012002150070A07E00B0A0AE0060A10E014
:10027000020A14E018D0010E226E236EE1DF18D0BE
:10028000266A010E276E85DF020E246E39DF10D03C
:10029000010E226E020E236ED3DF0AD0266A100EE4
:1002A000276E77DF05D0010E266E21C027F071DFA3
:1002B00012000900F5520CE0F6CF1FF0F7CF20F046
:1002C000F5CF21F0CEDF1FC0F6FF20C0F7FFF1D73A
:1002D000D3EF01F02250016A215C03E221C000F05B
:1002E0000CD0006A080E236E213600362250005CC6
:1002F000D8B0006E0136232EF7D7120001501FC070
:1003000021F0640E226EE6DF00C01FF00150300EB7
:1003100007E120A20CD020B60AD020B8200E03D0CE
:10032000209620982080012601C021F09ADF1FC06E
:1003300021F00A0E226ECEDF00C01FF00150300EF9
:1003400006E120B608D020A006D020B8200E012655
:1003500001C021F086DF300E1F261FC021F081DF93
:100360001200F86AD09E078E1D6A1C6AC150C00B2D
:100370000F09C16E070EB46E630E1E6E880ED56E29
:100380001A6A1B6A196AF28AC00EF2121FD71E502F
:100390001A5C1DE0010E226E236E52DFF80EF66E1F
:1003A000000EF76E86D7060E226E020E236E48DF11
:1003B0001BC01FF0010E206EA1DF3A0E216E51DF2F
:1003C0001AC01FF0010E206E99DF1AC01EF0DFD791
:0203D000030028
:020000040030CA
:0E00000004CC3E1E0087A1000FC00FE00F4091
:00000001FF
;PIC18F4550
;CRC=AF20  CREATED="31-mai-17 08:33"
