:100000008EEF01F0EA6A0E0EE96EEF50D8B416EFEB
:1000100000F0060E016E006A002EFED7012EFBD7FF
:100020007B0E006E002EFED7EF2EF3D7ACEF01F063
:10003000166A176A010E186EDA6AD96A1B6A0E0E02
:100040001A6EEA6A120EE96E1BC0E2FF1AC0E1FFE7
:1000500018C019F0D890E550EE02F3501622F45073
:100060001722192EF7D716C0DEFF17C016F0176A31
:10007000D8B0172A1A2AD8B41B2A182A18500508EB
:10008000E0E1CEEF01F0D8B203D0EA6A1A0EE96ED1
:10009000006A016A026A036A1A6A1B6A1C6A1D6A9C
:1000A00019501810171016102CE0200E1E6ED89044
:1000B00012361336143615361A361B361C361D36D4
:1000C00019501D5C08E118501C5C05E117501B5CC1
:1000D00002E116501A5C0FE316501A5E1750D8A0B2
:1000E000173C1B5E1850D8A0183C1C5E1950D8A0B5
:1000F000193C1D5ED88000360136023603361E2EAE
:10010000D6D71AC0EFFF1BC0ECFF1CC0ECFF1DC010
:10011000ECFFE5EF01F0016A026A006A036A1D5014
:1001200002E11C5018E0100E1E6ED8901A361B36D5
:10013000003603361D50035C02E11C50005C07E3EF
:100140001C50005ED8A003061D50035ED880013607
:1001500002361E2EEAD712001850000A13E0010AD8
:1001600014E0030A15E0010A16E0070A17E0010A85
:1001700018E0030A19E0010A1AE00F0A1BE0010A5D
:100180001CE01ED03F0E196E1DD0060E196E1AD03F
:100190005B0E196E17D04F0E196E14D0660E196EC5
:1001A00011D06D0E196E0ED07D0E196E0BD0070E8C
:1001B000196E08D07F0E196E05D06F0E196E02D021
:1001C000400E196E19C001F069EF01F011C01BF06B
:1001D00010C01AF01D6A0A0E1C6E9DDF00C012F0DE
:1001E00011C01BF010C01AF01D6A640E1C6E93DF64
:1001F00000C018F003C019F003C01BF000C01AF0D3
:100200001D6A0A0E1C6E87DF01C013F011C01BF0BF
:1002100010C01AF0030E1D6EE80E1C6E7CDF00C0CD
:1002200018F003C019F003C01BF000C01AF01D6ADB
:10023000640E1C6E70DF01C014F011C01BF010C002
:100240001AF0270E1D6E100E1C6E65DF00C018F030
:1002500003C019F003C01BF000C01AF0030E1D6E9E
:10026000E80E1C6E58DF01C015F00450FC0F2EE2A2
:10027000040F7DEF01F096948D9496928D92969056
:100280008D909296898612C016F020D0929689960B
:1002900096928D9296908D9096948D8413C016F0C0
:1002A00015D096948D949296899696908D9096926C
:1002B0008D8214C016F00AD096948D9496928D92E9
:1002C0009296899696908D8015C016F016C018F0FB
:1002D00043D701C017F0956A17C08CFF045003087C
:1002E00002E1959E8C8E0450030802E1000E02D0BC
:1002F000010E0424046EF6EF01F0E824F76AF736E5
:10030000150FF66E030EF7220A00F550FA6E08007C
:10031000F550F96E76028C02A202B802F86AD09EFD
:10032000046AC150C00B0F09C16E070EB46EC150F4
:10033000C00B0E09C16E000E016EC250C30B01103E
:10034000C26EC050C00B0709C06EC08EC280630E63
:100350000D6E0A0E0E6E56D60D50630802E1000EA9
:1003600002D0010E0D240D6E0D5237E1C282C2B2D1
:10037000FED7C3CF05F0C4CF06F0076A086A08C0ED
:1003800011F007C010F006C00FF005C00EF0156A9E
:10039000146A130E136E880E126E4AD603C011F043
:1003A00002C010F001C00FF000C00EF0D89203C0E0
:1003B00015F002C014F001C013F000C012F0196A69
:1003C000186A030E176E16685ED603C00CF002C0E2
:1003D0000BF001C00AF000C009F00AC00FF009C01C
:1003E0000EF00AC011F009C010F0F0D6B2D7030029
:020000040030CA
:0E0000003FCF3E1E0087A1000FC00FE00F4053
:00000001FF
;PIC18F4550
;CRC=BC83  CREATED="30-mai-17 20:39"
