:10000000AFEF04F08E0E006E44C001F043C002F06A
:10001000036A0152D8A419EF00F002C001F0026A8D
:10002000080E005E0152D8A419EF00F0006A23EF19
:1000300000F0D89001BE22EF00F002360136000633
:1000400019EF00F0019E12000D50D8B4A5D0196E22
:100050001150D8B4A1D0195E05E37F0E1926D8B08F
:100060009BD006D0810E195ED8A096D0D8B494D07B
:1000700019C000F0016A026A036A186A0EC017F01C
:10008000178E0FC016F010C015F0190E196E14500F
:10009000155E0DE2010E165E0AE2175E08E2185EBA
:1000A00006E2182A172A162A1450152628D01350AB
:1000B000165E12E2010E175E0FE2185E0DE2182ABC
:1000C000172A135016261450152619E3162A17E17D
:1000D000172A15E1182A13D012508009175E0EE274
:1000E000010E185E0BE2182A1250800917261350D1
:1000F0001626E9E3172AE7E1182AE5D70380192E27
:1001000001D00BD0D8901536163617361836D89041
:100110000336023601361A36BAD71AA006D0D8905E
:100120000132023203321A3202D0000635E01ABE22
:100130001ED0D89015361636173618361450155E60
:1001400007E2010E165E04E2175E02E2185E1AE391
:100150001350165E05E2010E175E02E2185E12E30E
:1001600012508009175E03E2010E185E0BE3032AAA
:1001700009E1022A07E1012A05E1002A0DE0013226
:10018000023203320EC019F01250191A19AE02D001
:10019000018E06D0019E04D0006A016A026A036AD9
:1001A000E6EF04F04350D8B471D0006E4750D8B495
:1001B0006DD0002604E3810E002668E204D07F0E95
:1001C000005E64E363E044C04BF048504B1A448E39
:1001D000488E46504A02F4CF4DF045504902F4CFC4
:1001E00003F0F3CF4CF04A02F3504D26F4504C226A
:1001F000000E032246504902F3504D26F4504C2283
:10020000000E026A0322022244504A02F3504C2696
:10021000F4500322000E022244504902F3500326F8
:10022000F4500222000E016A012246504802F350A7
:100230004C26F4500322000E0222012245504802AF
:10024000F3500326F4500222000E012244504802CB
:10025000F3500226F4500122002A01BE05D04C368C
:100260000336023601360006000E4CAE0AD0032AD1
:1002700002220122015005E1025003E1035001E195
:10028000002A4BBE018E4BAE019E04D0006A016A6B
:10029000026A036A1200800ED8B2481A4D6A4E6A8A
:1002A00044C04CF048504C1A4350D8B4DCD04B6E8C
:1002B000006E4750D8B4E0D04B5ED8B481D03DE357
:1002C00048C051F0518E49C050F04AC04FF04E6ABC
:1002D000D890513250324F324E324B2EF8D74CAE6E
:1002E00003D04D80DDD04D904B904D88EA6A460E8C
:1002F000E96EE9D04D984CBE0AD04BA013D05132D4
:1003000050324F324E32002AD8B4C5D00BD051BE35
:100310000CD0D8904E364F36503651360006D8B4F1
:10032000BAD0F5D74D8C6BD04D9C44C04CF044AE48
:1003300002D0518EA9D0519EA7D047C04BF047C0E4
:1003400000F043504B5E44C051F0518E45C050F018
:1003500046C04FF04E6AD890513250324F324E3232
:100360004B2EF8D74CAE03D04D829AD04D924B9085
:100370004D8AEA6A4A0EE96EA6D04D9A4CBE0AD062
:100380004BA013D0513250324F324E32002AD8B4E3
:1003900082D00BD051BE0CD0D8904E364F3650364E
:1003A00051360006D8B477D0F5D74D8E28D04D9E63
:1003B00048C04CF048AE02D0518E66D0519E64D0F9
:1003C00048C051F0518E49C050F04AC04FF04CAE79
:1003D00004D0519E4D8464D04D944E6A4B90EA6A8D
:1003E000460EE96E70D04CBE1CD044C04CF04BA001
:1003F00006D0513250324F324E32002A4CE04EAECF
:100400000BD04F2A09E1502A07E1512A05E1513268
:1004100050324F32002A3FE04DBC86D74DBEC7D781
:100420001CD0800E511A51AE04D03AD048C04CF0C6
:100430000AD044C04CF0515206E1505204E14F52F0
:1004400002E1006A21D051BE08D0D8904E364F3616
:1004500050365136002EF7D71ED04CAE02D0518EFA
:1004600013D0519E11D047C000F048C051F049C090
:1004700050F04AC04FF008D043C000F044C051F0E3
:1004800045C050F046C04FF051C001F050C002F0DE
:100490004FC003F034D0006A016A026A036A2FD0A9
:1004A0004E6A4F1E501E511E4E1E4E2A05E14F2A07
:1004B00003E1502A01E1512A4DB015D74DB256D76C
:1004C0004DB48AD7B3D7EF504F2605E3502A03E146
:1004D000512AD8B44B80ED52EF50502603E3512AF5
:1004E000D8B44B80ED52EF50EFBE01D0800A5126B8
:1004F000D8B04B804DB8FED64DBA3FD774D7120056
:1005000040C047F04450471A47AE05D0D894D89021
:1005100040BED8802FD040C047F043C048F03F5085
:10052000485E06E047AE26D0D850010AD86E22D0E9
:1005300044C048F04050485E06E047AE1BD0D8505B
:10054000010AD86E17D045C048F04150485E06E019
:1005500047AE10D0D850010AD86E0CD046C048F033
:100560004250485E06E047AE05D0D850010AD86E2A
:1005700001D0D89010EF03F08E0E006E3F50005E59
:1005800040C002F041C001F0028E005209E0D89054
:10059000025202E1015204E002320132002EF7D78A
:1005A00040AE05D0011E021E012AD8B4022A120054
:1005B000246A236A226A7F0E216E7E0E2B6E800EC5
:1005C0002C6E2D6A2E6A7A0E2F6E2A0E306EAA0EAF
:1005D000316EA30E326E750E336EB60E346E090E8A
:1005E000356EB40E366E6F0E376E4F0E386EB60E19
:1005F000396EAA0E3A6E690E3B6E8B0E3C6EF60E8D
:100600003D6EE80E3E6E18C042F017C041F016C0B5
:1006100040F015C03FF0466A456A446A436A70D7A5
:1006200003E31650800A166E18C046F017C045F056
:1006300016C044F015C043F0830E4A6EF90E496EA1
:10064000220E486E7E0E476EADDD03C042F002C042
:1006500041F001C040F000C03FF08EDF01C025F046
:1006600018C046F017C045F016C044F015C043F05E
:10067000830E4A6EF90E496E220E486E7E0E476E4C
:1006800091DD03C042F002C041F001C040F000C063
:100690003FF0446A25C043F0B5DCD88242C046F042
:1006A00041C045F040C044F03FC043F003C04AF0B1
:1006B00002C049F001C048F000C047F0ECDD03C0C3
:1006C0002AF002C029F001C028F000C027F0030E74
:1006D0002516255203E0255002081AE12AC046F0EB
:1006E00029C045F028C044F027C043F0DB0E4A6E15
:1006F0000F0E496E490E486E7F0E476E53DD03C0E4
:1007000020F002C01FF001C01EF000C01DF063D039
:10071000252C31D0D882466A456A446A7F0E436EE2
:100720002AC04AF029C049F028C048F027C047F045
:10073000B2DD03C042F002C041F001C040F000C091
:100740003FF003C046F002C045F001C044F000C0D5
:1007500043F0DB0E4A6E0F0E496E490E486E7F0E57
:10076000476E20DD03C020F002C01FF001C01EF064
:1007700000C01DF030D0D8822AC046F029C045F014
:1007800028C044F027C043F04A6A496A486A7F0E8D
:10079000476E81DD03C042F002C041F001C040F06D
:1007A00000C03FF003C046F002C045F001C044F075
:1007B00000C043F0DB0E4A6E0F0E496E490E486EC4
:1007C0007F0E476EEFDC03C020F002C01FF001C0B7
:1007D0001EF000C01DF01C6A1B6A1A6A7F0E196E9B
:1007E00020C046F01FC045F01EC044F01DC043F0BD
:1007F00020C04AF01FC049F01EC048F01DC047F09D
:10080000D1DC03C020F002C01FF001C01EF000C008
:100810001DF0266A2650040857E324C046F023C082
:1008200045F022C044F021C043F020C04AF01FC070
:1008300049F01EC048F01DC047F0B4DC03C024F0EE
:1008400002C023F001C022F000C021F02650040DA8
:10085000F350036A2B0FE96E000E0320EA6EEFCF10
:1008600043F0ECCF44F0ECCF45F0ECCF46F024C0A1
:100870004AF023C049F022C048F021C047F092DC82
:10088000EACF40F0E9CF3FF0D8921CC046F01BC041
:1008900045F01AC044F019C043F003C04AF002C04A
:1008A00049F001C048F000C047F0F5DC40C0EAFF65
:1008B0003FC0E9FF03C01CF002C01BF001C01AF0EA
:1008C00000C019F0262AA6D72550020802E0252CE0
:1008D00003D01A50800A1A6E19C000F01AC001F035
:1008E0001BC002F01CC003F099EF04F0D88210C0C6
:1008F00046F00FC045F00EC044F00DC043F0DB0ED3
:100900004A6E0F0E496E490E486E7F0E476EC3DC6D
:1009100003C014F002C013F001C012F000C011F0C7
:1009200003C018F002C017F001C016F000C015F0A7
:100930003FD611EF05F0EA6A090EE96EEF500DE0BF
:10094000060E016E006A002EFED7012EFBD77B0E2D
:10095000006E002EFED7EF2EF3D79DEF05F0F86A5C
:10096000D09EC150C00B0F09C16E070EB46E000EB1
:100970000409CA6E7F0ECB6EC150C00B0F09C16E49
:1009800094948B940C0EBD6EB76AB66A066A056ABB
:1009900006C044F005C043F002EC00F003C00CF0C8
:1009A00002C00BF001C00AF000C009F003C010F053
:1009B00002C00FF001C00EF000C00DF0146A136AFF
:1009C0007A0E126E880E116E24EF00F003C00CF048
:1009D00002C00BF001C00AF000C009F003C046F0ED
:1009E00002C045F001C044F000C043F0DB0E4A6E87
:1009F0000F0E496E490E486E800E476ED2EC00F025
:100A000003C00CF002C00BF001C00AF000C009F0F6
:100A100003C010F002C00FF001C00EF000C00DF0D6
:100A200065D703C00CF002C00BF001C00AF000C093
:100A300009F0EACF0EF0E9CF0DF0D89203C046F0EE
:100A400002C045F001C044F000C043F04A6A496A60
:100A5000486A7F0E476E1FDC0EC0EAFF0DC0E9FF3B
:100A600003C00CF002C00BF001C00AF000C009F096
:100A700003C046F002C045F001C044F000C043F09E
:100A80004A6A496A486A880E476ED2EC00F003C091
:100A90000CF002C00BF001C00AF000C009F0EACF70
:100AA00010F0E9CF0FF0D89203C046F002C045F035
:100AB00001C044F000C043F04A6A496A486A7F0EA8
:100AC000476E4BEC01F010C0EAFF0FC0E9FF03C016
:100AD00042F002C041F001C040F000C03FF04CDDE8
:100AE00002C008F001C007F008C002F007C001F022
:100AF0000232013202320132023201C0BEFF023242
:100B00000230300B006EBD50CF0B0010BD6E055093
:100B1000D00806E10650070803E1036A000E07D07B
:100B2000010E0524016E000E0620036E0150056EB5
:0E0B300003C006F0010E096EFED62AD70300A0
:020000040030CA
:0E00000004CC3E1E0087A1000FC00FE00F4091
:00000001FF
;PIC18F4550
;CRC=13C9  CREATED="06-jul-17 10:35"
