:1000000017EF00F0EA6A060EE96EEF50D8B416EF6B
:1000100000F0060E016E006A002EFED7012EFBD7FF
:100020007B0E006E002EFED7EF2EF3D71200F86A7B
:10003000D09EC150C00B0F09C16E070EB46E000EEA
:10004000936E93948A9493928A9293908A80140EDA
:10005000056EFA0E066ED6DF052EFBD793908A90BA
:1000600093948A9493928A82080E056EFA0E066E15
:10007000C9DF052EFBD793928A9293908A9093942E
:100080008A84100E056EFA0E066EBCDF052EFBD7B5
:04009000D8D70300BA
:020000040030CA
:0E0000003FCF3E1E0087A1000FC00FE00F4053
:00000001FF
;PIC18F4550
;CRC=40DB  CREATED="30-mai-17 18:35"
