:1000000051EF00F00750000A13E0010A14E0030A60
:1000100015E0010A16E0070A17E0010A18E0030AD2
:1000200019E0010A1AE00F0A1BE0010A1CE01ED0C9
:100030003F0E086E1ED0060E086E1BD05B0E086EBB
:1000400018D04F0E086E15D0660E086E12D06D0EC9
:10005000086E0FD07D0E086E0CD0070E086E09D00A
:100060007F0E086E06D06F0E086E03D0400E086E2D
:1000700000D008C001F06EEF00F0EA6A080EE96EE9
:10008000EF500DE0010E016E006A002EFED7012E2A
:10009000FBD79E0E006E002EFED7EF2EF3D776EF25
:1000A00000F0F86AD09EEA6AE96AC150C00B0F09F5
:1000B000C16E070EB46E000E956EFF0E966E956AB9
:1000C0008C6A9680056A84B0052A055214E1066A96
:1000D000065009080FE306C007F094D7956A01C0DF
:1000E0008CFF100E076EFA0E086EC7D7072EFBD7CF
:0A00F000062AEED7066AE3D70300E4
:020000040030CA
:0E0000003CCC390E0087A1000FC00FE00F406E
:00000001FF
;PIC18F4550
;CRC=4AF5  CREATED="24-mai-17 18:26"
