:10000000E9EF01F0EA6A0F0EE96EEF50D8B416EF8F
:1000100000F0060E016E006A002EFED7012EFBD7FF
:100020007B0E006E002EFED7EF2EF3D71200133892
:10003000F00B006E0F0E8C1400108C6E00008C8084
:10004000030E006E002EFED78C9012008350006EBF
:1000500000380F0B016E12000F0E9514F009956E0B
:100060008C8400008C800000F1DF01C013F08C90C4
:1000700000008C8000D000D00000E8DF01C012F04A
:100080008C900F0E9514956E1338006EF00E0016BE
:1000900000501210016E52EF00F0959095929594D9
:1000A0008C92DAD701C012F001BEFBD78C9210B04F
:1000B0008C8200008C9400008C901138126E0F0E10
:1000C000121612C013F0B3DF11500F0B126E136E25
:1000D000AEDF1200280E0B6E0C0E0C6E010E0D6EB4
:1000E000060E0E6E8C908C928C940F0E9514956E5D
:1000F0009590959295940F0E0F6E84DF010E0A6E07
:100100000A50030808E3030E136E91DF050E0F6E0D
:1001100079DF0A2AF5D7020E136E89DF050E0F6EFE
:1001200071DF0A6A0A5003080DE3036A0A500B0FD5
:10013000E96E000E0320EA6EEFCF11F0106AADDF1A
:100140000A2AF0D7FAEF01F0010E0D6E0C50016E85
:1001500004E0D8900D36012EFCD7936A0DC08AFFBB
:10016000FDEF00F00E50070B006E0E30016E0132F5
:1001700001321F0E011601501024E96E000E1120ED
:10018000EA6E016A012A002A01D00136002EFDD74D
:100190000F5203E00150EF1203D0011E0150EF1681
:1001A00016EF01F00E50070B006E0E30016E01329B
:1001B00001321F0E011601500F24E96E000E1020AF
:1001C000EA6EEFCF01F0002A01D00132002EFDD7F8
:1001D000010E01161DEF01F00C50040DF3500D241B
:1001E0000E6E0EC001F026EF01F004940B6A0B5066
:1001F000030845E30BC00CF0A7D7100E006E002ECD
:10020000FED700000A6A0A50030837E30C0E0A24DE
:100210000C6E7C0E0D6ED8B00D2A0CC00EF0010EC7
:100220000F6E0F0E116E920E106E9CD70CC00EF05A
:100230000F0E106E800E0F6EB5D701A01CD007C038
:1002400008F00BC00CF00AC00DF0C6D701C007F0D3
:100250000484095009080BE204A409D00850075C83
:1002600006E104B004D00480049207C005F00850F1
:10027000075C01E0096A0A2AC6D70B2AB8D704B47A
:1002800002D0096A04900850075C05E1095009088A
:1002900002E3010E0926FEEF01F004A055D004B2DE
:1002A00053D005501FE0010A20E0030A21E0010AB3
:1002B00022E0070A23E0010A24E0030A25E0010AFC
:1002C00026E00F0A27E0010A28E0030A29E0010AD4
:1002D0002AE0070A2BE0010A2CE0030A2DE0010ABC
:1002E0002EE030D0370E066E2FD0380E066E2CD092
:1002F000390E066E29D02F0E066E26D0340E066EED
:1003000023D0350E066E20D0360E066E1DD0580E48
:10031000066E1AD0310E066E17D0320E066E14D04D
:10032000330E066E11D02D0E066E0ED0430E066EE5
:100330000BD0300E066E08D03D0E066E05D02B0E8B
:10034000066E02D0210E066EFFEF01F00C2C01D0DC
:1003500003D0400E0D6E01D00D6A010E0B5C0D2610
:100360000D5080090E6E106A116E97DE12000A5051
:10037000070A07E00B0A0AE0060A10E0020A14E086
:1003800018D0010E0B6E0C6EE1DF18D0106A010E52
:10039000116E83DE020E0F6E35DE10D0010E0B6E75
:1003A000020E0C6ED3DF0AD0106A100E116E75DECD
:1003B00005D0010E106E0AC011F06FDEE6EF01F0FD
:1003C00004B205D0048206C00AF0D1D7066A00EF55
:1003D00002F0F86AD09E0480056A0492066A0494CA
:1003E000096AC150C00B0F09C16E070EB46E076ACF
:1003F000086A70D6F00E936EF18EF7D64ED7E0D71E
:04040000FCD7030022
:020000040030CA
:0E00000004CC3E1E0087A1000FC00FE00F4091
:00000001FF
;PIC18F4550
;CRC=7D52  CREATED="06-jul-17 23:10"
